{
  "_format": "hh-sol-artifact-1",
  "contractName": "Lottery",
  "sourceName": "contracts/Lottery.sol",
  "abi": [
    {
      "inputs": [],
      "stateMutability": "nonpayable",
      "type": "constructor"
    },
    {
      "inputs": [],
      "name": "enter",
      "outputs": [],
      "stateMutability": "payable",
      "type": "function"
    },
    {
      "inputs": [],
      "name": "getBalance",
      "outputs": [
        {
          "internalType": "uint256",
          "name": "",
          "type": "uint256"
        }
      ],
      "stateMutability": "view",
      "type": "function"
    },
    {
      "inputs": [],
      "name": "getPlayers",
      "outputs": [
        {
          "internalType": "address[]",
          "name": "",
          "type": "address[]"
        }
      ],
      "stateMutability": "view",
      "type": "function"
    },
    {
      "inputs": [],
      "name": "manager",
      "outputs": [
        {
          "internalType": "address",
          "name": "",
          "type": "address"
        }
      ],
      "stateMutability": "view",
      "type": "function"
    },
    {
      "inputs": [],
      "name": "pickWinner",
      "outputs": [],
      "stateMutability": "nonpayable",
      "type": "function"
    },
    {
      "inputs": [
        {
          "internalType": "uint256",
          "name": "",
          "type": "uint256"
        }
      ],
      "name": "players",
      "outputs": [
        {
          "internalType": "address",
          "name": "",
          "type": "address"
        }
      ],
      "stateMutability": "view",
      "type": "function"
    },
    {
      "stateMutability": "payable",
      "type": "receive"
    }
  ],
  "bytecode": "0x608060405234801561001057600080fd5b50336000806101000a81548173ffffffffffffffffffffffffffffffffffffffff021916908373ffffffffffffffffffffffffffffffffffffffff160217905550610b8d806100606000396000f3fe6080604052600436106100595760003560e01c806312065fe01461006d578063481c6a75146100985780635d495aea146100c35780638b5b9ccc146100da578063e97dcb6214610105578063f71d96cb1461010f57610068565b366100685761006661014c565b005b600080fd5b34801561007957600080fd5b506100826101fa565b60405161008f919061056e565b60405180910390f35b3480156100a457600080fd5b506100ad610202565b6040516100ba91906105ca565b60405180910390f35b3480156100cf57600080fd5b506100d8610226565b005b3480156100e657600080fd5b506100ef610414565b6040516100fc91906106a3565b60405180910390f35b61010d61014c565b005b34801561011b57600080fd5b50610136600480360381019061013191906106f6565b6104a2565b60405161014391906105ca565b60405180910390f35b662386f26fc100003411610195576040517f08c379a000000000000000000000000000000000000000000000000000000000815260040161018c90610780565b60405180910390fd5b6001339080600181540180825580915050600190039060005260206000200160009091909190916101000a81548173ffffffffffffffffffffffffffffffffffffffff021916908373ffffffffffffffffffffffffffffffffffffffff160217905550565b600047905090565b60008054906101000a900473ffffffffffffffffffffffffffffffffffffffff1681565b60008054906101000a900473ffffffffffffffffffffffffffffffffffffffff1673ffffffffffffffffffffffffffffffffffffffff163373ffffffffffffffffffffffffffffffffffffffff16146102b4576040517f08c379a00000000000000000000000000000000000000000000000000000000081526004016102ab90610812565b60405180910390fd5b6000600180549050116102fc576040517f08c379a00000000000000000000000000000000000000000000000000000000081526004016102f39061087e565b60405180910390fd5b600060018054905061030c6104e1565b61031691906108cd565b905060006001828154811061032e5761032d6108fe565b5b9060005260206000200160009054906101000a900473ffffffffffffffffffffffffffffffffffffffff1673ffffffffffffffffffffffffffffffffffffffff164760405161037c9061095e565b60006040518083038185875af1925050503d80600081146103b9576040519150601f19603f3d011682016040523d82523d6000602084013e6103be565b606091505b5050905080610402576040517f08c379a00000000000000000000000000000000000000000000000000000000081526004016103f9906109bf565b60405180910390fd5b600160006104109190610517565b5050565b6060600180548060200260200160405190810160405280929190818152602001828054801561049857602002820191906000526020600020905b8160009054906101000a900473ffffffffffffffffffffffffffffffffffffffff1673ffffffffffffffffffffffffffffffffffffffff168152602001906001019080831161044e575b5050505050905090565b600181815481106104b257600080fd5b906000526020600020016000915054906101000a900473ffffffffffffffffffffffffffffffffffffffff1681565b6000444260016040516020016104f993929190610b1e565b6040516020818303038152906040528051906020012060001c905090565b50805460008255906000526020600020908101906105359190610538565b50565b5b80821115610551576000816000905550600101610539565b5090565b6000819050919050565b61056881610555565b82525050565b6000602082019050610583600083018461055f565b92915050565b600073ffffffffffffffffffffffffffffffffffffffff82169050919050565b60006105b482610589565b9050919050565b6105c4816105a9565b82525050565b60006020820190506105df60008301846105bb565b92915050565b600081519050919050565b600082825260208201905092915050565b6000819050602082019050919050565b61061a816105a9565b82525050565b600061062c8383610611565b60208301905092915050565b6000602082019050919050565b6000610650826105e5565b61065a81856105f0565b935061066583610601565b8060005b8381101561069657815161067d8882610620565b975061068883610638565b925050600181019050610669565b5085935050505092915050565b600060208201905081810360008301526106bd8184610645565b905092915050565b600080fd5b6106d381610555565b81146106de57600080fd5b50565b6000813590506106f0816106ca565b92915050565b60006020828403121561070c5761070b6106c5565b5b600061071a848285016106e1565b91505092915050565b600082825260208201905092915050565b7f4d696e696d756d20656e7472792066656520697320302e303120455448000000600082015250565b600061076a601d83610723565b915061077582610734565b602082019050919050565b600060208201905081810360008301526107998161075d565b9050919050565b7f4f6e6c79206d616e616765722063616e2063616c6c20746869732066756e637460008201527f696f6e0000000000000000000000000000000000000000000000000000000000602082015250565b60006107fc602383610723565b9150610807826107a0565b604082019050919050565b6000602082019050818103600083015261082b816107ef565b9050919050565b7f4e6f20706c617965727320696e206c6f74746572790000000000000000000000600082015250565b6000610868601583610723565b915061087382610832565b602082019050919050565b600060208201905081810360008301526108978161085b565b9050919050565b7f4e487b7100000000000000000000000000000000000000000000000000000000600052601260045260246000fd5b60006108d882610555565b91506108e383610555565b9250826108f3576108f261089e565b5b828206905092915050565b7f4e487b7100000000000000000000000000000000000000000000000000000000600052603260045260246000fd5b600081905092915050565b50565b600061094860008361092d565b915061095382610938565b600082019050919050565b60006109698261093b565b9150819050919050565b7f5472616e73666572206661696c65640000000000000000000000000000000000600082015250565b60006109a9600f83610723565b91506109b482610973565b602082019050919050565b600060208201905081810360008301526109d88161099c565b9050919050565b6000819050919050565b6109fa6109f582610555565b6109df565b82525050565b600081549050919050565b600081905092915050565b60008190508160005260206000209050919050565b610a34816105a9565b82525050565b6000610a468383610a2b565b60208301905092915050565b60008160001c9050919050565b600073ffffffffffffffffffffffffffffffffffffffff82169050919050565b6000610a92610a8d83610a52565b610a5f565b9050919050565b6000610aa58254610a7f565b9050919050565b6000600182019050919050565b6000610ac482610a00565b610ace8185610a0b565b9350610ad983610a16565b8060005b83811015610b1157610aee82610a99565b610af88882610a3a565b9750610b0383610aac565b925050600181019050610add565b5085935050505092915050565b6000610b2a82866109e9565b602082019150610b3a82856109e9565b602082019150610b4a8284610ab9565b915081905094935050505056fea2646970667358221220992d9e91bf370ff646448f4005abce9c5ec504ff020e13cb91ea2015c5c25f7d64736f6c63430008130033",
  "linkReferences": {},
  "deployedLinkReferences": {}
}